{
  "_format": "hh-sol-artifact-1",
  "contractName": "BasicDutchAuction",
  "sourceName": "contracts/BasicDutchAuction.sol",
  "abi": [
    {
      "inputs": [
        {
          "internalType": "uint256",
          "name": "_reservePrice",
          "type": "uint256"
        },
        {
          "internalType": "address",
          "name": "_judgeAddress",
          "type": "address"
        },
        {
          "internalType": "uint256",
          "name": "_numBlocksAuctionOpen",
          "type": "uint256"
        },
        {
          "internalType": "uint256",
          "name": "_offerPriceDecrement",
          "type": "uint256"
        }
      ],
      "stateMutability": "nonpayable",
      "type": "constructor"
    },
    {
      "inputs": [],
      "name": "bid",
      "outputs": [
        {
          "internalType": "address",
          "name": "",
          "type": "address"
        }
      ],
      "stateMutability": "payable",
      "type": "function"
    },
    {
      "inputs": [],
      "name": "finalize",
      "outputs": [],
      "stateMutability": "nonpayable",
      "type": "function"
    },
    {
      "inputs": [],
      "name": "nop",
      "outputs": [
        {
          "internalType": "bool",
          "name": "",
          "type": "bool"
        }
      ],
      "stateMutability": "nonpayable",
      "type": "function"
    },
    {
      "inputs": [
        {
          "internalType": "uint256",
          "name": "refundAmount",
          "type": "uint256"
        }
      ],
      "name": "refund",
      "outputs": [],
      "stateMutability": "nonpayable",
      "type": "function"
    }
  ],
  "bytecode": "0x60806040523480156200001157600080fd5b50604051620014223803806200142283398181016040528101906200003791906200042a565b6200006b7fedce66b1fcb125436ed8cb08bba836a4de7eea25426e3629dd774421486e5f2760001b6200038260201b60201c565b6200009f7fb5cd958c698fb3a7689e04a1f4dcc9d7097ef02ab632d5b7d54fd8fc19eb128860001b6200038260201b60201c565b620000d37f167f398314048ddb05fddb66c935da838931e398cf0d68429034daa79993f54760001b6200038260201b60201c565b836001819055506200010e7fd900e40d452e718b9e92e43cee96d73ea2e35975c55ae8ef0e3a0a48e9f886bd60001b6200038260201b60201c565b620001427f9b336ad8123456204106e235d3bf699116149a94a749f92e0617e23785e8ca2660001b6200038260201b60201c565b82600260006101000a81548173ffffffffffffffffffffffffffffffffffffffff021916908373ffffffffffffffffffffffffffffffffffffffff160217905550620001b77fe4656766cb0729220eed0129502545a23f66eacf8e26e0095e5e8c5dbcc08b7e60001b6200038260201b60201c565b620001eb7f6916dab6b5e6a8ea6020715429540f17f22b1ad3e7fc4e6500ec8c32ecaca32260001b6200038260201b60201c565b81600381905550620002267f8fb4145c9fa35fd2a246bb73db18f8e07627d6ac0b7d8d6b3d907d1f928a460060001b6200038260201b60201c565b6200025a7fcf2b39536f39b443db145d234a3ec1609a75c6ee7ce000043fa686aab9337d1760001b6200038260201b60201c565b80600481905550620002957fc182c26effc72b7eceb9263f90d6c93d1929e3a7f825b98f81a081695a04581960001b6200038260201b60201c565b620002c97fa37063c738da358d6ff4d927b26077f593b28f6f0ae42ea79a5f258ff4b49f3060001b6200038260201b60201c565b336000806101000a81548173ffffffffffffffffffffffffffffffffffffffff021916908373ffffffffffffffffffffffffffffffffffffffff1602179055506200033d7fd92be24adbc990f5bf4b0d1fcdea5d7f80817cb8bafc4de43c7beb3d86984e9b60001b6200038260201b60201c565b620003717fe7e406f72b2103563469ed8b3db2b5c08d14aa7bae9bd31cc777f408af33ed1b60001b6200038260201b60201c565b43600581905550505050506200049c565b50565b600080fd5b6000819050919050565b6200039f816200038a565b8114620003ab57600080fd5b50565b600081519050620003bf8162000394565b92915050565b600073ffffffffffffffffffffffffffffffffffffffff82169050919050565b6000620003f282620003c5565b9050919050565b6200040481620003e5565b81146200041057600080fd5b50565b6000815190506200042481620003f9565b92915050565b6000806000806080858703121562000447576200044662000385565b5b60006200045787828801620003ae565b94505060206200046a8782880162000413565b93505060406200047d87828801620003ae565b92505060606200049087828801620003ae565b91505092959194509250565b610f7680620004ac6000396000f3fe60806040526004361061003f5760003560e01c80631998aeef14610044578063278ecde1146100625780632e9c58bb1461008b5780634bb278f3146100b6575b600080fd5b61004c6100cd565b6040516100599190610d74565b60405180910390f35b34801561006e57600080fd5b5061008960048036038101906100849190610dca565b6106ba565b005b34801561009757600080fd5b506100a06108fd565b6040516100ad9190610e12565b60405180910390f35b3480156100c257600080fd5b506100cb61098a565b005b60006100fb7fe367ab28fdbb4398f351d5377a2250aab479323d96caaf6f59a31d2d577fbf7c60001b610d30565b6101277f4ed0619541be99c9541a1f324ce37795646230206f8ca4c86e64bd1a1598ca4960001b610d30565b6101537f03cd7ba736b89e938f10209633857b018aab36f32fb045fdd5b0e7fd29799d7a60001b610d30565b61017f7fe8c63489bf0773a2da353241ebb826a9580a0aaca6a64401de7eccc0460fe1ca60001b610d30565b600860009054906101000a900460ff161561019957600080fd5b6101c57f2c1783f41d369d9a34a775d924365e5effaa497f6b291d66813a4db344c4726d60001b610d30565b6101f07edad55e2f566e599a004f1eeea97ae11119971ca3fdabb722115a8a534722a660001b610d30565b61021c7f0587fb731404ea95fcd907cfca41cb477f982c8c93cc6ada51dc77888b4f7cfb60001b610d30565b6102487f01ad87f96d94d2072f9d8ebcdb9a366d16874c3e34c5421a22afb8adc5f1962e60001b610d30565b6003546005546102589190610e5c565b431061026357600080fd5b61028f7fb6a5fdf541c92bbda716c2144791e3ac76778b0ad0b3710ce74116f7c990752c60001b610d30565b6102bb7fca296cf181f552a1e6428edc6ba2fd155a8d0f16cbb491060f17990c5795021a60001b610d30565b6102e77fe7659b2fe26e95c257642771cd01d1687e8dc06f3221caa3f05d511621dc0f2860001b610d30565b6103137fdfd68ba8c119331f4193f131385d077256790ce057b7aafb0f596c26108aa4e660001b610d30565b436003546005546103249190610e5c565b61032e9190610eb2565b60045461033b9190610ee6565b6001546103489190610e5c565b34101561035457600080fd5b6103807fe6137de9a9e44c3d91e907125535407cc83a3d27f8eeff0417bef1978af51ca660001b610d30565b6103ac7f07544367b58600bafb6fa6c5edea9de297bb8b9321162f22223d2377191ea81c60001b610d30565b6103d87fd0f04b2d599770da2f1e2ceff3b4d26953ec7be6e9dedfb5d2d01d1fcddf4fa360001b610d30565b6001600860006101000a81548160ff02191690831515021790555061041f7fd0fde05d7ecdca05caf181bfd5568507cf12cabf55ddb7ff8e66d2749a24c92b60001b610d30565b61044b7fbab0d84bfa10a68292b22bf82f26d7c950e0e1f632d40d8fe4245e0f4920b3a760001b610d30565b600073ffffffffffffffffffffffffffffffffffffffff16600260009054906101000a900473ffffffffffffffffffffffffffffffffffffffff1673ffffffffffffffffffffffffffffffffffffffff161415610592576104ce7f27de14461930f27a3192428fcab16d92754ac4b18a25b2b876509d0a78dc3ef060001b610d30565b6104fa7fc1f308593d4c0470ac1b4f045ef8bdc16f00d3e516f75ea0185856282f24598360001b610d30565b6105267fe6a73206e62f12bedfdbc2d4856044785a276905bb61cb1fff0e8bbef3ed4edf60001b610d30565b60008054906101000a900473ffffffffffffffffffffffffffffffffffffffff1673ffffffffffffffffffffffffffffffffffffffff166108fc349081150290604051600060405180830381858888f1935050505015801561058c573d6000803e3d6000fd5b506106b7565b6105be7f406adc4bf6d8cdc6abcf7dafe6d6e1775d948eedf996b0b1e54e68ba171233c860001b610d30565b6105ea7f33f3567aaa561a3a4d5c1c6c231ab98c2ec5a471d33811e922f46d8e097a1d4160001b610d30565b6106167fe0fa0e9bad7a822da8d8f33290c51660f220020d58238610258a302c0f9f353160001b610d30565b33600660006101000a81548173ffffffffffffffffffffffffffffffffffffffff021916908373ffffffffffffffffffffffffffffffffffffffff1602179055506106837f019d0eaef3c605ae593e46038e58758277c797f869d020777a9123f8d737012760001b610d30565b6106af7f0bb5c3c777653da3d69561b11b88fb495c9c0eaadb3e499dad88baaa54fa805b60001b610d30565b346007819055505b90565b6106e67fabba1d4f32eb2bef61610c4f842f61b55d78b5f8e37ca97331fcf45c1ae7f6c960001b610d30565b6107127fd6b60a272ebe44c17cee0a3db00c7114ccf3882a8fc671ab516024967c734a1d60001b610d30565b61073e7feb5b1d9bdcb6d228386ae27b5384dbdfd8c39fdd5d01a086ab9586c89f344b3660001b610d30565b61076a7fedba62e2a8025a089bfadabf599749dab8d24715d5bef9bb9b4b90fe119f46e560001b610d30565b600860009054906101000a900460ff1680156107935750600860019054906101000a900460ff16155b61079c57600080fd5b6107c87fda68f95f3640dd3dc32e5bfbcfb658b7d13cac84aebda20895d09dc996232a7960001b610d30565b6107f47f1c66f101cbeb92ed0da6c183d261907ebfd6a6a2ad832d0ff8012c785da5948760001b610d30565b6108207f791251fe819ae2e60939de9f3b2a4521cf95054f86f89635139f5bb2761437ea60001b610d30565b6001600860016101000a81548160ff0219169083151502179055506108677f934fb9dbd27d61adc1b873146336d785ffdc998538704f795cbb9ca0c7a0ecd860001b610d30565b6108937fd8c4cb92c3b5939a1cdff2fb13a9e7dcd20fb925dd775a7d51c3a52c33fb1cba60001b610d30565b60008054906101000a900473ffffffffffffffffffffffffffffffffffffffff1673ffffffffffffffffffffffffffffffffffffffff166108fc829081150290604051600060405180830381858888f193505050501580156108f9573d6000803e3d6000fd5b5050565b600061092b7fb7a2a47b3f0d0a591f54e12fc0ea3a8912d94cfab4f6caada93587969a41132c60001b610d30565b6109577f05219e9c54e43cecb69a1a5b2e59d9b79ec1a554666e1cdbd450f70730b7e5b260001b610d30565b6109837f563e0a6cf9440c3a631cfbd1de7244e575992537b819d441156a01bf88838ebd60001b610d30565b6001905090565b6109b67fa84a565c9cfc708e825e7e46cc389d730a651b9fd9124f5cb02e843f778ed6c860001b610d30565b6109e27f508b4d29d50b6726eaf3e42c0634d8ab503f0724e75b9ca07c1e3c9794743f5f60001b610d30565b610a0e7f4c35b9f60bfe16d6b2e4393bcb03b03aef9bd3533db5289741096cbe20ca13b860001b610d30565b610a3a7fbba60aaa88a191d75c9fbd4decda4871e72c02d62e34232edccf8d0f2c6c9c9960001b610d30565b600860009054906101000a900460ff168015610a635750600860019054906101000a900460ff16155b610a6c57600080fd5b610a987f144951ba97e1a6a13b6af03ca38512ef0b3bd20cd4321eacb8688a500559527e60001b610d30565b610ac47fe80b8f6090b35314e31a24b543e3bb5c0c2c7e4c361e92f645a5cf7d95847e9e60001b610d30565b610af07f831cab0d1ff93433cc100ef583e0f30dfde1fb5bdb31f3e8cb7580f1a7a0548a60001b610d30565b610b1c7f51021d88a3d7e8312e73cc5f37ef931e43fd9cc8a1c70c53eab9d5f60ca656f660001b610d30565b600260009054906101000a900473ffffffffffffffffffffffffffffffffffffffff1673ffffffffffffffffffffffffffffffffffffffff163373ffffffffffffffffffffffffffffffffffffffff161480610bc55750600660009054906101000a900473ffffffffffffffffffffffffffffffffffffffff1673ffffffffffffffffffffffffffffffffffffffff163373ffffffffffffffffffffffffffffffffffffffff16145b610bce57600080fd5b610bfa7f10bf351c7a832ad031f3e52d9904e2be4ab1ec9cbb8e56ee079b9719b470196b60001b610d30565b610c267fd094b63a0d6fb03fb72cf7c3de4ed09ddcd1236f736cb51b5a5155e881e1d04d60001b610d30565b610c527f97b7d4558467f6bfe67c2a9cded9be27afbcb4cec4b4b36f10898a821bf3bbd960001b610d30565b6001600860016101000a81548160ff021916908315150217905550610c997fa5586bcc6b4be2a411aedfcaa742e9bf480605b4078d7ae694c655ce1b4dd4bb60001b610d30565b610cc57fe4d18831fb359d584656a8c5b7ed020a148fb717a7248ac25166a0e1f9cb57bb60001b610d30565b60008054906101000a900473ffffffffffffffffffffffffffffffffffffffff1673ffffffffffffffffffffffffffffffffffffffff166108fc6007549081150290604051600060405180830381858888f19350505050158015610d2d573d6000803e3d6000fd5b50565b50565b600073ffffffffffffffffffffffffffffffffffffffff82169050919050565b6000610d5e82610d33565b9050919050565b610d6e81610d53565b82525050565b6000602082019050610d896000830184610d65565b92915050565b600080fd5b6000819050919050565b610da781610d94565b8114610db257600080fd5b50565b600081359050610dc481610d9e565b92915050565b600060208284031215610de057610ddf610d8f565b5b6000610dee84828501610db5565b91505092915050565b60008115159050919050565b610e0c81610df7565b82525050565b6000602082019050610e276000830184610e03565b92915050565b7f4e487b7100000000000000000000000000000000000000000000000000000000600052601160045260246000fd5b6000610e6782610d94565b9150610e7283610d94565b9250827fffffffffffffffffffffffffffffffffffffffffffffffffffffffffffffffff03821115610ea757610ea6610e2d565b5b828201905092915050565b6000610ebd82610d94565b9150610ec883610d94565b925082821015610edb57610eda610e2d565b5b828203905092915050565b6000610ef182610d94565b9150610efc83610d94565b9250817fffffffffffffffffffffffffffffffffffffffffffffffffffffffffffffffff0483118215151615610f3557610f34610e2d565b5b82820290509291505056fea2646970667358221220edcd0b0df14897e42a142477e6a47429d6c001971929e47292a39ad9b5a80c6864736f6c63430008090033",
  "linkReferences": {},
  "deployedLinkReferences": {}
}